:020000040800F2
:100000000050002035100008450F00084B0F000875
:10001000510F0008570F00085D0F00080000000096
:10002000000000000000000000000000630F000856
:100030006F0F0008000000007B0F0008870F00080A
:100040007D1000087D1000087D1000087D1000085C
:100050007D1000087D1000087D1000087D1000084C
:100060007D1000087D1000087D1000087D1000083C
:100070007D1000087D1000087D1000087D1000082C
:100080007D1000087D1000087D1000087D1000081C
:100090007D1000087D1000087D1000087D1000080C
:1000A0007D1000087D1000087D1000087D100008FC
:1000B000950F00087D1000087D1000087D100008D5
:1000C0007D1000087D1000087D1000087D100008DC
:1000D0007D100008A90F00087D1000087D100008A1
:1000E0007D1000087D1000087D1000080000000051
:1000F0000000000000000000000000000000000000
:0C01000000000000000000005FF808F1A3
:10010C0010B5054C237833B9044B13B10448AFF345
:10011C0000800123237010BD5C0000200000000053
:10012C001456000808B5034B1BB103490348AFF341
:10013C00008008BD0000000060000020145600087C
:10014C00034613F8012B002AFBD1181A013870470B
:10015C0090B597B002AF00F08DFF00F0CBFC00F033
:10016C00ADFD00F07DFD00F007FD00F02BFD4548D6
:10017C0003F034F8444803F07BF800F047FD01220B
:10018C004249434803F039FB07F13403414918460F
:10019C0000F030F9404B1B68002B0FD03E4B002277
:1001AC001A603E4B1B68D9B23D4B1B68DAB23D4B13
:1001BC001B68DBB207F1340000F029F93A4B1B68DD
:1001CC00002B14D0384B00221A60384B1B68D9B264
:1001DC00374B1B68DAB2374B1B68DCB2364B1B68EB
:1001EC00DBB207F134000093234600F062F907F10B
:1001FC003403184600F037F907F13403184600F0C1
:10020C008CF997F83C30194697F83B301C4697F818
:10021C003D3097F83E2038460192009323460A461B
:10022C00264904F08FF83B461846FFF789FF034632
:10023C009AB239464FF0FF33154803F05BFA4FF48E
:10024C00FA7000F079FF97F83A301A4697F839307F
:10025C00194697F83830384600930B46184904F085
:10026C0071F83B461846FFF76BFF03469AB23946C6
:10027C004FF0FF33064803F03DFA4FF4FA7000F0EC
:10028C005BFF87E79C000020E4000020C8010020F1
:10029C002C0100207401002094000020800000201C
:1002AC007C000020780000209800002088000020AE
:1002BC00840000208C000020900000202C560008A8
:1002CC004456000880B586B004AF78607B68186827
:1002DC007B680B334FF47A720292032201920093E3
:1002EC0001230022D02101F003FC00BF0837BD46DA
:1002FC0080BD80B586B004AF78607B6818687B6879
:10030C000E334FF47A72029203220192009301236E
:10031C000022D02101F0E6FC00BF0837BD4680BDAD
:10032C0080B586B004AF78607B6818687B68113341
:10033C004FF47A7202920422019200930123032259
:10034C00D02101F0D5FB00BF0837BD4680BD80B57C
:10035C0086B004AF78607B6818687B6815334FF4FF
:10036C007A72029204220192009301230322D0217B
:10037C0001F0B8FC00BF0837BD4680BD80B483B027
:10038C0000AF0346FB71FB791B09DBB21A469200E6
:10039C0013445B00DAB2FB7903F00F03DBB21344B6
:1003AC00DBB218460C37BD4680BC704780B483B0B6
:1003BC0000AF0346FB71FB790D4AA2FB0323DB085C
:1003CC00DBB21B0158B2FA79094BA3FB0213D90813
:1003DC000B469B000B445B00D31ADBB25BB20343AE
:1003EC005BB2DBB218460C37BD4680BC704700BF11
:1003FC00CDCCCCCC80B483B000AF786039607B6856
:10040C003A681A6000BF0C37BD4680BC704780B597
:10041C0082B000AF7860084611461A460346FB705E
:10042C000B46BB7013467B707B781846FFF7BEFFFC
:10043C0003461A467B68DA72BB781846FFF7B6FF9C
:10044C0003461A467B681A73FB781846FFF7AEFF13
:10045C0003461A467B685A737868FFF733FF00BF70
:10046C000837BD4680BD80B582B000AF7860786833
:10047C00FFF73FFF7B689B7B1846FFF77FFF034628
:10048C001A467B681A717B68DB7B1846FFF776FF90
:10049C0003461A467B685A717B681B7C1846FFF72B
:1004AC006DFF03461A467B689A7100BF0837BD463C
:1004BC0080BD80B582B000AF7860084611461A4600
:1004CC000346FB700B46BB7013467B70FB781846DB
:1004DC00FFF76CFF03461A467B685A74BB781846C4
:1004EC00FFF764FF03461A467B689A747B781846BC
:1004FC00FFF75CFF03461A467B68DA743B7C1846B0
:10050C00FFF754FF03461A467B681A757868FFF7A5
:10051C0007FF00BF0837BD4680BD80B582B000AF75
:10052C0078607868FFF713FF7B685B7D1846FFF7F0
:10053C0025FF03461A467B681A727B689B7D18461A
:10054C00FFF71CFF03461A467B68DA717B68DB7D7C
:10055C001846FFF713FF03461A467B685A727B68EE
:10056C001B7E1846FFF70AFF03461A467B689A72F1
:10057C0000BF0837BD4680BD80B586B000AF07F11F
:10058C00080300221A605A609A60DA60104B9B696B
:10059C000F4A43F0040393610D4B9B6903F0040372
:1005AC007B607B682023BB601123FB6002237B6193
:1005BC0007F108031946074800F0A2FF0122202189
:1005CC00044801F038F900BF1837BD4680BD00BFA4
:1005DC00001002400008014080B483B000AF786086
:1005EC00084B1B6800225A6200BF064B1B685B6AF3
:1005FC007A689A42F9D800BF00BF0C37BD4680BC60
:10060C00704700BF9C00002080B584B000AF03464B
:10061C003960FB800023FB600AE0FB685A1CFA601F
:10062C00FA88934201DD03230CE00120FFF7D4FF8D
:10063C002021064801F0E8F803461A463B6893422D
:10064C00EBD0FB6818461037BD4680BD0008014052
:10065C0080B58AB000AF786039600022202147480D
:10066C0001F0E9F844F62060FFF7B6FF01222021E3
:10067C00424801F0E0F82820FFF7AEFF07F1140321
:10068C0000221A605A609A60DA6020237B61002392
:10069C00BB610023FB6107F114031946374800F0D6
:1006AC002FFF00215020FFF7AFFF0346032B01D192
:1006BC0005235EE001215020FFF7A6FF0346032B24
:1006CC0001D1062355E00023FB6000233B7400237B
:1006DC007B6235E000213220FFF796FF0346032BA7
:1006EC0001D1072345E001214620FFF78DFF03468A
:1006FC001C2B22DD7B6A002B00DA0733DB101A4639
:10070C0002F128033B4413F81C3C59B27B6A584253
:10071C0003F0070300F0070058BF4342C3F107037F
:10072C00012000FA03F35BB20B435BB2D9B202F1C6
:10073C0028033B440A4603F81C2C7B6A01337B627A
:10074C007B6A272BC6DD3A7B7B7B1344DAB2BB7BFF
:10075C001344DAB2FB7B1344DAB23B7C9A4201D0ED
:10076C00012306E03A7B3B681A70BA7B7B681A70EF
:10077C00002318462837BD4680BD00BF0008014045
:10078C0080B590B000AF78607B681B68B3F1804F88
:10079C0040F09680002387F83E30002387F83D30E8
:1007AC00002387F83F30FFF7E7FE07F13D0207F122
:1007BC003E0311461846FFF74BFF034687F83F30C0
:1007CC0097F83F30002B18D197F83E301A4697F81F
:1007DC003D3007F108003C4903F0B4FD07F1080374
:1007EC001846FFF7ADFC03469AB207F108014FF02B
:1007FC00FF33364802F07EFF62E097F83F30052B5E
:10080C0014D107F108033249184603F09BFD07F198
:10081C0008031846FFF794FC03469AB207F1080147
:10082C004FF0FF33294802F065FF49E097F83F305D
:10083C00062B14D107F108032649184603F082FD54
:10084C0007F108031846FFF77BFC03469AB207F141
:10085C0008014FF0FF331D4802F04CFF30E097F8D1
:10086C003F30072B14D107F108031B49184603F03E
:10087C0069FD07F108031846FFF762FC03469AB2BC
:10088C0007F108014FF0FF33104802F033FF17E077
:10089C0097F83F30012B13D107F108030F49184685
:1008AC0003F050FD07F108031846FFF749FC034617
:1008BC009AB207F108014FF0FF33044802F01AFF17
:1008CC0000BF4037BD4680BD585600082C010020A3
:1008DC006056000880560008A0560008C056000854
:1008EC0080B588B002AF78607B681B686F4A934212
:1008FC0040F0D7806E4B1B78232B43D16D4B1B786C
:10090C00052B3FD16C4B1B78402B3BD16A4B5B7852
:10091C00522B37D1684B9B78322B33D1664BDB781B
:10092C004F2B2FD1634B1B781A46614B1978624BB6
:10093C009954614B1B794E2B05D1012240215F4804
:10094C0000F079FF08E05C4B1B79462B04D10022A8
:10095C0040215A4800F06FFF00237B610BE07B695C
:10096C00554A99184FF0FF330122554802F0C2FE48
:10097C007B6901337B617B69052BF0DD4D4B0022DC
:10098C001A7089E04A4B1B784D2B33D14A4B1B789C
:10099C00542B2FD1484BDB783A2B2BD1464B9B79E0
:1009AC003A2B27D1474B01221A60424B1B781A462F
:1009BC003F4B1978404B995400233B610BE03E4A66
:1009CC003B6913441978404A3B6913440A461A7030
:1009DC003B6901333B613B690B2BF0DD3B4B0093D7
:1009EC003B4B3C4A3C49384803F0CCFC314B002291
:1009FC001A7051E02E4B1B78452B39D12E4B1B789E
:100A0C00442B35D12C4B9B782F2B31D12A4B5B7936
:100A1C002F2B2DD1284B1B7A2F2B29D12F4B012279
:100A2C001A60244B1B781A46214B1978224B995487
:100A3C000023FB600BE0204AFB6813441978224A20
:100A4C00FB6813440A461A70FB680133FB60FB68B1
:100A5C000B2BF0DD224B0193224B0093224B234AAC
:100A6C002349194803F08EFC124B00221A7013E034
:100A7C00104B1B781A460E4B19780F4B99540D4B93
:100A8C001B780133DAB20B4B1A700A4B1B780B2B09
:100A9C0002D9084B00221A7001220549084802F0BD
:100AAC00ACFE00BF1837BD4680BD00BF003801400A
:100ABC00C8010020E4010020CC0100200008014006
:100ACC002C01002094000020D80100207800002088
:100ADC007C00002080000020D456000898000020E4
:100AEC00900000208C000020840000208800002052
:100AFC00E056000880B590B000AF07F1180328222B
:100B0C000021184603F06AFC3B1D00221A605A6053
:100B1C009A60DA601A610223BB610123BB62102365
:100B2C00FB6202237B630023BB634FF46013FB6304
:100B3C0007F11803184601F0F1FE0346002B01D013
:100B4C0000F0F8F80F237B600223BB600023FB60EE
:100B5C004FF480633B6100237B613B1D02211846EF
:100B6C0002F05EF90346002B01D000F0E3F800BF61
:100B7C004037BD4680BD000080B500AF0F4B104A1A
:100B8C001A600E4B3F225A600C4B00229A600B4BA2
:100B9C004FF6FF72DA60094B00221A61074B0022F4
:100BAC005A61064B00229A61044802F0C7FA0346C8
:100BBC00002B01D000F0BEF800BF80BD9C000020CF
:100BCC00002C014080B500AF0F4B4FF080421A60F3
:100BDC000D4B4FF6FF125A600B4B00229A600A4BDA
:100BEC004FF4FA62DA60084B00221A61064B0022BD
:100BFC009A61054802F0A2FA0346002B01D000F0DE
:100C0C0099F800BF80BD00BFE400002080B500AFA4
:100C1C00114B124A1A60104B4FF416525A600E4B7D
:100C2C0000229A600C4B0022DA600B4B00221A61F6
:100C3C00094B0C225A61084B00229A61064B002288
:100C4C00DA61054802F006FD0346002B01D000F0E6
:100C5C0071F800BF80BD00BF2C010020003801409E
:100C6C0080B500AF124B134A1A60114B124A5A60EE
:100C7C000F4B00229A600E4B0022DA600C4B4FF4A3
:100C8C0080421A610A4B00225A61094B00229A6178
:100C9C00074B0022DA61064B00221A62044800F06E
:100CAC00E3FD0346002B01D000F044F800BF80BDEB
:100CBC007401002000540040A086010080B586B06D
:100CCC0000AF07F1080300221A605A609A60DA60DC
:100CDC00164B9B69154A43F020039361134B9B6998
:100CEC0003F020037B607B68104B9B690F4A43F039
:100CFC00040393610D4B9B6903F004033B603B6859
:100D0C00002240210A4800F096FD4023BB600123DD
:100D1C00FB6002237B6107F108031946044800F0CD
:100D2C00EFFB00BF1837BD4680BD00BF001002406E
:100D3C000008014080B400AF72B600BFFEE70000AF
:100D4C0080B485B000AF154B9B69144A43F0010386
:100D5C009361124B9B6903F00103BB60BB680F4BA3
:100D6C00DB690E4A43F08053D3610C4BDB6903F013
:100D7C0080537B607B680A4B5B68FB60FB6823F0ED
:100D8C00E063FB60FB6843F00073FB60044AFB68A4
:100D9C00536000BF1437BD4680BC70470010024042
:100DAC000000014080B588B000AF786007F11003F7
:100DBC0000221A605A609A60DA607B681B68154AD8
:100DCC00934223D1144B9B69134A43F0080393615C
:100DDC00114B9B6903F00803FB60FB68C0233B616C
:100DEC0012237B610323FB6107F1100319460B48A7
:100DFC0000F086FB084BDB69074A43F40013D36110
:100E0C00054BDB6903F40013BB60BB6800BF2037E4
:100E1C00BD4680BD0054004000100240000C014053
:100E2C0080B584B000AF78607B681B68164A93422B
:100E3C000CD1164B9B69154A43F400639361134B19
:100E4C009B6903F40063FB60FB6818E07B681B681C
:100E5C00B3F1804F13D10D4BDB690C4A43F0010306
:100E6C00D3610A4BDB6903F00103BB60BB68002252
:100E7C0000211C2000F05BFA1C2000F074FA00BF6B
:100E8C001037BD4680BD00BF002C01400010024051
:100E9C0080B588B000AF786007F1100300221A60AB
:100EAC005A609A60DA607B681B68204A934239D199
:100EBC001F4B9B691E4A43F4804393611C4B9B69F7
:100ECC0003F48043FB60FB68194B9B69184A43F0A1
:100EDC0004039361164B9B6903F00403BB60BB686E
:100EEC004FF400733B6102237B610323FB6107F129
:100EFC00100319460F4800F003FB4FF480633B616D
:100F0C0000237B610023BB6107F1100319460948DC
:100F1C0000F0F6FA00220021252000F008FA252026
:100F2C0000F021FA00BF2037BD4680BD00380140DB
:100F3C00001002400008014080B400AFFEE780B40E
:100F4C0000AFFEE780B400AFFEE780B400AFFEE771
:100F5C0080B400AFFEE780B400AF00BFBD4680BCDC
:100F6C00704780B400AF00BFBD4680BC704780B4F2
:100F7C0000AF00BFBD4680BC704780B500AF00F02D
:100F8C00BFF800BF80BD000080B500AF024802F082
:100F9C00C1F900BF80BD00BFE400002080B500AFE8
:100FAC00024802F04FFC00BF80BD00BF2C010020A6
:100FBC0080B586B000AF7860144A154BD31A7B61AC
:100FCC007B693B61134B1B68002B02D1114B124AFE
:100FDC001A60104B1A687B6813443A699A4207D21C
:100FEC0003F004FA03460C221A604FF0FF3309E0B9
:100FFC00084B1B68FB60074B1A687B681344054A57
:10100C001360FB6818461837BD4680BD00500020A1
:10101C0000040000E80100203803002080B400AF79
:10102C0000BFBD4680BC7047FFF7F8FF0B480C496A
:10103C000C4A002302E0D458C4500433C4188C4228
:10104C00F9D3094A094C002301E013600432A2428F
:10105C00FBD303F0D1F9FFF77BF8704700000020B9
:10106C005C000020805800085C0000203803002041
:10107C00FEE7000080B500AF084B1B68074A43F041
:10108C0010031360032000F047F90F2000F008F85C
:10109C00FFF756FE0023184680BD00BF002002401B
:1010AC0080B582B000AF7860124B1A68124B1B7877
:1010BC0019464FF47A73B3FBF1F3B2FBF3F3184612
:1010CC0000F05FF90346002B01D001230EE07B6892
:1010DC000F2B0AD8002279684FF0FF3000F027F967
:1010EC00064A7B681360002300E00123184608378A
:1010FC00BD4680BD00000020080000200400002038
:10110C0080B400AF054B1B781A46054B1B68134483
:10111C00034A136000BFBD4680BC70470800002026
:10112C00EC01002080B400AF024B1B681846BD4692
:10113C0080BC7047EC01002080B584B000AF7860B3
:10114C00FFF7F0FFB8607B68FB60FB68B3F1FF3F13
:10115C0005D00A4B1B781A46FB681344FB6000BF92
:10116C00FFF7E0FF0246BB68D31AFA689A42F7D839
:10117C0000BF00BF1037BD4680BD00BF0800002077
:10118C0080B485B000AF78607B6803F00703FB6028
:10119C000C4BDB68BB60BA684FF6FF031340BB60B7
:1011AC00FB681A02BB68134343F0BF6343F400337C
:1011BC00BB60044ABB68D36000BF1437BD4680BC1B
:1011CC00704700BF00ED00E080B400AF044BDB685B
:1011DC001B0A03F007031846BD4680BC704700BFCE
:1011EC0000ED00E080B483B000AF0346FB7197F9CB
:1011FC000730002B0BDBFB7903F01F02064997F934
:10120C0007305B09012000FA02F241F8232000BFED
:10121C000C37BD4680BC704700E100E080B483B061
:10122C0000AF03463960FB7197F90730002B0ADBDE
:10123C003B68DAB20C4997F907301201D2B20B4471
:10124C0083F800230AE03B68DAB20849FB7903F023
:10125C000F03043B1201D2B20B441A7600BF0C37B9
:10126C00BD4680BC704700BF00E100E000ED00E02F
:10127C0080B489B000AFF860B9607A60FB6803F0A5
:10128C000703FB61FB69C3F10703042B28BF04238D
:10129C00BB61FB690433062B02D9FB69033B00E0FD
:1012AC0000237B614FF0FF32BB6902FA03F3DA4390
:1012BC00BB681A407B699A404FF0FF317B6901FA99
:1012CC0003F3D9437B680B40134318462437BD46C0
:1012DC0080BC704780B582B000AF78607B68013B02
:1012EC00B3F1807F01D301230FE00A4A7B68013BF5
:1012FC0053600F214FF0FF30FFF790FF054B00229A
:10130C009A60044B07221A60002318460837BD4622
:10131C0080BD00BF10E000E080B582B000AF786007
:10132C007868FFF72DFF00BF0837BD4680BD80B53C
:10133C0086B000AF0346B9607A60FB7300237B6113
:10134C00FFF742FF78617A68B9687869FFF790FF18
:10135C00024697F90F3011461846FFF75FFF00BFA2
:10136C001837BD4680BD80B582B000AF0346FB7117
:10137C0097F907301846FFF735FF00BF0837BD4611
:10138C0080BD80B582B000AF78607868FFF7A2FFAF
:10139C00034618460837BD4680BD80B485B000AF03
:1013AC0078600023FB737B6893F82130DBB2022B4F
:1013BC0008D07B6804229A637B68002283F8202083
:1013CC00012320E07B681B681A687B681B6822F08D
:1013DC000E021A607B681B681A687B681B6822F017
:1013EC0001021A607B681A6C7B68DB6B012101FAC5
:1013FC0002F25A607B68012283F821207B6800226C
:10140C0083F82020FB7B18461437BD4680BC704700
:10141C0080B584B000AF78600023FB737B6893F8D1
:10142C002130DBB2022B05D07B6804229A630123A6
:10143C00FB7351E07B681B681A687B681B6822F0A1
:10144C000E021A607B681B681A687B681B6822F0A6
:10145C0001021A607B681B68224A934229D07B6880
:10146C001B68214A934222D07B681B681F4A934217
:10147C001AD07B681B681E4A934212D07B681B688B
:10148C001C4A93420AD07B681B681B4A934202D1C8
:10149C004FF480130EE04FF080730BE04FF4803369
:1014AC0008E04FF4805305E04FF4807302E0102302
:1014BC0000E00123114A53607B68012283F821204C
:1014CC007B68002283F820207B685B6B002B03D0A9
:1014DC007B685B6B78689847FB7B18461037BD467A
:1014EC0080BD00BF080002401C00024030000240DA
:1014FC0044000240580002406C00024000000240D0
:10150C0080B48BB000AF7860396000237B6200231D
:10151C003B6269E101227B6A02FA03F3FB613B68DF
:10152C001B68FA691340BB61BA69FB699A4240F0C7
:10153C0058813B685B689A4A93425ED0984A9342C2
:10154C0075D8984A934258D0964A93426FD8964A87
:10155C00934252D0944A934269D8944A93424CD0C5
:10156C00924A934263D8924A934246D0904A93420D
:10157C005DD8122B2AD8122B59D801A252F823F07D
:10158C0007160008E1150008F315000835160008C9
:10159C003B1600083B1600083B1600083B160008DB
:1015AC003B1600083B1600083B1600083B160008CB
:1015BC003B1600083B1600083B1600083B160008BB
:1015CC003B160008E9150008FD150008794A9342FE
:1015DC0013D02CE03B68DB683B6229E03B68DB689E
:1015EC0004333B6224E03B68DB6808333B621FE05A
:1015FC003B68DB680C333B621AE03B689B68002B52
:10160C0002D104233B6213E03B689B68012B05D19C
:10161C0008233B627B68FA691A6109E008233B6284
:10162C007B68FA695A6103E000233B6200E000BF6B
:10163C00BB69FF2B01D87B6801E07B6804337B61BD
:10164C00BB69FF2B02D87B6A9B0002E07B6A083BDC
:10165C009B003B617B691A680F213B6901FA03F31C
:10166C00DB431A40396A3B6901FA03F31A437B697D
:10167C001A603B685B6803F08053002B00F0B1806C
:10168C004D4B9B694C4A43F0010393614A4B9B6958
:10169C0003F00103BB60BB68484A7B6A9B080233BA
:1016AC0052F82330FB607B6A03F003039B000F228C
:1016BC0002FA03F3DB43FA681340FB607B68404A91
:1016CC00934213D07B683F4A93420DD07B683E4ACD
:1016DC00934207D07B683D4A934201D1032306E035
:1016EC00042304E0022302E0012300E000237A6AD1
:1016FC0002F0030292009340FA681343FB602F49F7
:10170C007B6A9B080233FA6841F823203B685B68CC
:10171C0003F48013002B06D02D4B9A682C49BB691F
:10172C0013438B6006E02A4B9A68BB69DB4328495C
:10173C0013408B603B685B6803F40013002B06D0EE
:10174C00234BDA682249BB691343CB6006E0204B7C
:10175C00DA68BB69DB431E491340CB603B685B68AE
:10176C0003F40033002B06D0194B5A681849BB6997
:10177C0013434B6006E0164B5A68BB69DB431449B4
:10178C0013404B603B685B6803F48033002B21D023
:10179C000F4B1A680E49BB6913430B6021E000BF65
:1017AC000000321000003110000022100000211047
:1017BC000000121000001110001002400000014047
:1017CC0000080140000C01400010014000140140D1
:1017DC00000401400B4B1A68BB69DB4309491340F9
:1017EC000B607B6A01337B623B681A687B6A22FA66
:1017FC0003F3002B7FF48EAE00BF00BF2C37BD4629
:10180C0080BC70470004014080B485B000AF7860A4
:10181C000B467B807B689A687B881340002B02D038
:10182C000123FB7301E00023FB73FB7B1846143789
:10183C00BD4680BC704780B483B000AF78600B4667
:10184C007B8013467B707B78002B03D07A887B6877
:10185C001A6103E07B881A047B681A6100BF0C379D
:10186C00BD4680BC7047000080B584B000AF786086
:10187C007B68002B01D101232BE17B6893F83D3071
:10188C00DBB2002B06D17B68002283F83C20786801
:10189C00FFF788FA7B68242283F83D207B681B685D
:1018AC001A687B681B6822F001021A607B681B684F
:1018BC001A687B681B6842F400421A607B681B68DC
:1018CC001A687B681B6822F400421A6001F0F0FB76
:1018DC00F8607B685B68814A934207D8FB68804A52
:1018EC00934294BF01230023DBB206E0FB687D4AE0
:1018FC00934294BF01230023DBB2002B01D00123C0
:10190C00E7E0FB68784AA2FB03239B0CBB607B6877
:10191C001B685B6823F03F017B681B68BA680A434D
:10192C005A607B681B681B6A23F03F017B685B680D
:10193C006A4A934202D8BB68013309E0BB684FF492
:10194C00967202FB03F3694AA2FB03239B09013342
:10195C007A6812680B4313627B681B68DB6923F49B
:10196C004F4222F0FF027B685B685C498B4219D8BE
:10197C00FB68591E7B685B685B00B1FBF3F3591C79
:10198C0040F6FC730B40002B0AD0FB68591E7B6899
:10199C005B685B00B1FBF3F30133C3F30B0351E062
:1019AC0004234FE07B689B68002B11D1FB68581E09
:1019BC007B6859680B465B000B44B0FBF3F30133B7
:1019CC00C3F30B03002B0CBF01230023DBB212E08B
:1019DC00FB68581E7B6859680B469B000B449900AA
:1019EC000B44B0FBF3F30133C3F30B03002B0CBF1D
:1019FC0001230023DBB2002B01D0012322E07B6802
:101A0C009B68002B0ED1FB68581E7B6859680B46EF
:101A1C005B000B44B0FBF3F30133C3F30B0343F450
:101A2C0000430FE0FB68581E7B6859680B469B000F
:101A3C000B4499000B44B0FBF3F30133C3F30B03DA
:101A4C0043F44043796809681343CB617B681B6896
:101A5C001B6823F0C0017B68DA697B681B6A1A4338
:101A6C007B681B680A431A607B681B689B6823F4BD
:101A7C00034323F0FF037A6811697A68D268114333
:101A8C007A6812680B4393607B681B68DB6823F0F1
:101A9C00FF017B685A697B689B691A437B681B68EA
:101AAC000A43DA607B681B681A687B681B6842F023
:101ABC0001021A607B6800221A647B68202283F87A
:101ACC003D207B6800221A637B68002283F83E204D
:101ADC00002318461037BD4680BD00BFA08601000C
:101AEC007F841E00FF083D0083DE1B43D34D621034
:101AFC0080B588B002AFF860084611461A46034616
:101B0C007B810B463B811346FB80FFF70BFB786117
:101B1C00FB6893F83D30DBB2202B40F0D9807B6919
:101B2C000093192301226D49F86800F0C1FC0346AB
:101B3C00002B01D00223CCE0FB6893F83C30012B46
:101B4C0001D10223C5E0FB68012283F83C20FB682D
:101B5C001B681B6803F00103012B07D0FB681B6893
:101B6C001A68FB681B6842F001021A60FB681B686C
:101B7C001A68FB681B6822F400621A60FB68212259
:101B8C0083F83D20FB68402283F83E20FB6800224E
:101B9C001A64FB683A6A5A62FB68BA8C5A85FB680D
:101BAC005B8D9AB2FB681A85FB684D4ADA62F8883D
:101BBC003A8979897B690193BB6A00930346F8687B
:101BCC0000F0F8FA0346002B52D0012381E07A6929
:101BDC00B96AF86800F086FD0346002B0DD0FB684F
:101BEC001B6C042B07D1FB681B681A68FB681B680D
:101BFC0042F400721A6001236BE0FB685B6A1A788E
:101C0C00FB681B681A61FB685B6A5A1CFB685A62AA
:101C1C00FB681B8D013B9AB2FB681A85FB685B8DD8
:101C2C009BB2013B9AB2FB685A85FB681B685B69E7
:101C3C0003F00403042B1BD1FB681B8D002B17D066
:101C4C00FB685B6A1A78FB681B681A61FB685B6A45
:101C5C005A1CFB685A62FB681B8D013B9AB2FB68ED
:101C6C001A85FB685B8D9BB2013B9AB2FB685A8567
:101C7C00FB681B8D002BAAD17A69B96AF86800F051
:101C8C0079FD0346002B0DD0FB681B6C042B07D190
:101C9C00FB681B681A68FB681B6842F400721A60C8
:101CAC00012316E0FB681B681A68FB681B6842F48A
:101CBC0000721A60FB68202283F83D20FB6800222A
:101CCC0083F83E20FB68002283F83C20002300E0D0
:101CDC00022318461837BD4680BD00BF0200100015
:101CEC000000FFFF80B58CB002AFF86008461146CB
:101CFC001A4603467B810B463B811346FB8000232F
:101D0C003B62FFF70FFA7862FB6893F83D30DBB269
:101D1C00202B40F044827B6A0093192301228249D4
:101D2C00F86800F0C5FB0346002B01D0022337E214
:101D3C00FB6893F83C30012B01D1022330E2FB68A5
:101D4C00012283F83C20FB681B681B6803F001032D
:101D5C00012B07D0FB681B681A68FB681B6842F0F4
:101D6C0001021A60FB681B681A68FB681B6822F486
:101D7C0000621A60FB68222283F83D20FB68402237
:101D8C0083F83E20FB6800221A64FB683A6B5A62A7
:101D9C00FB68BA8E5A85FB685B8D9AB2FB681A8514
:101DAC00FB68624ADA62F8883A8979897B6A01931E
:101DBC00BB6B00930346F86800F092FA0346002BC5
:101DCC0001D00123ECE1FB681B8D002B13D1002308
:101DDC00FB61FB681B685B69FB61FB681B689B69AB
:101DEC00FB61FB69FB681B681A68FB681B6842F4A3
:101DFC0000721A60C0E1FB681B8D012B1ED1FB68C1
:101E0C001B681A68FB681B6822F480621A6072B641
:101E1C0000BF0023BB61FB681B685B69BB61FB688F
:101E2C001B689B69BB61BB69FB681B681A68FB6814
:101E3C001B6842F400721A6062B635E0FB681B8DB9
:101E4C00022B1ED1FB681B681A68FB681B6842F4E6
:101E5C0000621A6072B600BF00237B61FB681B68CE
:101E6C005B697B61FB681B689B697B617B69FB68B9
:101E7C001B681A68FB681B6822F480621A6062B6E1
:101E8C0012E0FB681B681A68FB681B6842F48062EE
:101E9C001A6000233B61FB681B685B693B61FB6854
:101EAC001B689B693B613B6966E1FB681B8D032BDF
:101EBC0000F21F81FB681B8D012B23D17A6AB96B51
:101ECC00F86800F09FFC0346002B01D0012367E16A
:101EDC00FB681B681A69FB685B6AD2B21A70FB68F4
:101EEC005B6A5A1CFB685A62FB681B8D013B9AB2F9
:101EFC00FB681A85FB685B8D9BB2013B9AB2FB6851
:101F0C005A8539E1FB681B8D022B52D17B6A0093F9
:101F1C00BB6B00220649F86800F0CAFA0346002B96
:101F2C0008D001233CE100BF020010000000FFFFBD
:101F3C000400010072B600BFFB681B681A68FB68DE
:101F4C001B6842F400721A60FB681B681A69FB6814
:101F5C005B6AD2B21A70FB685B6A5A1CFB685A62E5
:101F6C00FB681B8D013B9AB2FB681A85FB685B8D85
:101F7C009BB2013B9AB2FB685A8562B600BFFB6804
:101F8C001B681A69FB685B6AD2B21A70FB685B6AE1
:101F9C005A1CFB685A62FB681B8D013B9AB2FB68AA
:101FAC001A85FB685B8D9BB2013B9AB2FB685A8524
:101FBC00E2E07B6A0093BB6B00227B49F86800F07F
:101FCC0077FA0346002B01D00123E9E0FB681B687C
:101FDC001A68FB681B6822F480621A6072B600BF34
:101FEC00FB681B681A69FB685B6AD2B21A70FB68E3
:101FFC005B6A5A1CFB685A62FB681B8D013B9AB2E8
:10200C00FB681A85FB685B8D9BB2013B9AB2FB683F
:10201C005A85664B1B68DB08654AA2FB03231A0A28
:10202C0013469B001344DA00D31A3B623B6A013B14
:10203C003B623B6A002B18D1FB6800221A63FB68D9
:10204C00202283F83D20FB68002283F83E20FB68A9
:10205C001B6C43F02002FB681A6462B600BFFB687D
:10206C00002283F83C2001239AE0FB681B685B6923
:10207C0003F00403042BD9D1FB681B681A68FB68B6
:10208C001B6842F400721A60FB681B681A69FB68D3
:10209C005B6AD2B21A70FB685B6A5A1CFB685A62A4
:1020AC00FB681B8D013B9AB2FB681A85FB685B8D44
:1020BC009BB2013B9AB2FB685A8562B600BFFB68C3
:1020CC001B681A69FB685B6AD2B21A70FB685B6AA0
:1020DC005A1CFB685A62FB681B8D013B9AB2FB6869
:1020EC001A85FB685B8D9BB2013B9AB2FB685A85E3
:1020FC0042E07A6AB96BF86800F084FB0346002B67
:10210C0001D001234CE0FB681B681A69FB685B6A11
:10211C00D2B21A70FB685B6A5A1CFB685A62FB6885
:10212C001B8D013B9AB2FB681A85FB685B8D9BB2D9
:10213C00013B9AB2FB685A85FB681B685B6903F02C
:10214C000403042B18D1FB681B681A69FB685B6AD3
:10215C00D2B21A70FB685B6A5A1CFB685A62FB6845
:10216C001B8D013B9AB2FB681A85FB685B8D9BB299
:10217C00013B9AB2FB685A85FB681B8D002B7FF4E0
:10218C0094AEFB68202283F83D20FB68002283F884
:10219C003E20FB68002283F83C20002300E0022351
:1021AC0018462837BD4680BD040001000000002001
:1021BC0089B5F81480B588B002AFF86008461146AE
:1021CC001A4603467B810B463B811346FB80FB681A
:1021DC001B681A68FB681B6842F480721A607B6A81
:1021EC0000933B6A00224FF00111F86800F060F98F
:1021FC000346002B0DD0FB681B681B6803F480732F
:10220C00B3F5807F03D1FB684FF400721A6403238B
:10221C005FE07B89DBB21A46FB681B6802F0FE02AA
:10222C001A617B6A3A6A2D49F86800F0BBF90346DB
:10223C00002B01D001234CE000237B61FB681B6861
:10224C005B697B61FB681B689B697B617B697A6A54
:10225C00396AF86800F046FA0346002B0DD0FB688B
:10226C001B6C042B07D1FB681B681A68FB681B6886
:10227C0042F400721A6001232BE0FB88012B05D17C
:10228C003B89DAB2FB681B681A6121E03B891B0AA7
:10229C009BB2DAB2FB681B681A617A6A396AF86811
:1022AC0000F020FA0346002B0DD0FB681B6C042BAE
:1022BC0007D1FB681B681A68FB681B6842F4007244
:1022CC001A60012305E03B89DAB2FB681B681A61CE
:1022DC00002318461837BD4680BD00BF0200010020
:1022EC0080B588B002AFF860084611461A4603461E
:1022FC007B810B463B811346FB80FB681B681A688D
:10230C00FB681B6842F480621A60FB681B681A68E1
:10231C00FB681B6842F480721A607B6A00933B6A0C
:10232C0000224FF00111F86800F0C2F80346002BB0
:10233C000DD0FB681B681B6803F48073B3F5807FBA
:10234C0003D1FB684FF400721A640323AAE07B8963
:10235C00DBB21A46FB681B6802F0FE021A617B6A4C
:10236C003A6A5249F86800F01DF90346002B01D077
:10237C00012397E000237B61FB681B685B697B6131
:10238C00FB681B689B697B617B697A6A396AF868B0
:10239C0000F0A8F90346002B0DD0FB681B6C042B36
:1023AC0007D1FB681B681A68FB681B6842F4007253
:1023BC001A60012376E0FB88012B05D13B89DAB248
:1023CC00FB681B681A6121E03B891B0A9BB2DAB2DD
:1023DC00FB681B681A617A6A396AF86800F082F93E
:1023EC000346002B0DD0FB681B6C042B07D1FB683C
:1023FC001B681A68FB681B6842F400721A600123A0
:10240C0050E03B89DAB2FB681B681A617A6A396A58
:10241C00F86800F067F90346002B0DD0FB681B6CC5
:10242C00042B07D1FB681B681A68FB681B6842F415
:10243C0000721A60012335E0FB681B681A68FB68A0
:10244C001B6842F480721A607B6A00933B6A00221C
:10245C004FF00111F86800F02BF80346002B0DD05B
:10246C00FB681B681B6803F48073B3F5807F03D192
:10247C00FB684FF400721A64032313E07B89DBB210
:10248C0043F00103DAB2FB681B681A617B6A3A6A93
:10249C000649F86800F086F80346002B01D00123AA
:1024AC0000E0002318461837BD4680BD020001002D
:1024BC0080B584B000AFF860B9603B601346FB7127
:1024CC0048E03B68B3F1FF3F44D0FEF72BFE0246D9
:1024DC00BB69D31A3A689A4202D33B68002B39D1B4
:1024EC00BB681B0CDBB2012B0DD1FB681B685B6955
:1024FC00DA43BB6813409BB2002B0CBF01230023B3
:10250C00DBB21A460CE0FB681B689B69DA43BB68BC
:10251C0013409BB2002B0CBF01230023DBB21A46E5
:10252C00FB799A4216D1FB6800221A63FB682022C1
:10253C0083F83D20FB68002283F83E20FB681B6C6F
:10254C0043F02002FB681A64FB68002283F83C20ED
:10255C00012323E0BB681B0CDBB2012B0DD1FB6804
:10256C001B685B69DA43BB6813409BB2002B0CBF42
:10257C0001230023DBB21A460CE0FB681B689B6945
:10258C00DA43BB6813409BB2002B0CBF0123002322
:10259C00DBB21A46FB799A4293D0002318461037C7
:1025AC00BD4680BD80B584B000AFF860B9607A607C
:1025BC003B6071E0FB681B685B6903F48063B3F5F7
:1025CC00806F23D1FB681B681A68FB681B6842F498
:1025DC0000721A60FB681B686FF480625A61FB68BA
:1025EC0000221A63FB68202283F83D20FB6800223E
:1025FC0083F83E20FB681B6C43F00402FB681A64F2
:10260C00FB68002283F83C20012367E07B68B3F170
:10261C00FF3F41D0FEF786FD02463B68D31A7A682D
:10262C009A4202D37B68002B36D1BB681B0CDBB201
:10263C00012B0CD1FB681B685B69DA43BB68134048
:10264C009BB2002B14BF01230023DBB20BE0FB6811
:10265C001B689B69DA43BB6813409BB2002B14BF09
:10266C0001230023DBB2002B16D0FB6800221A6377
:10267C00FB68202283F83D20FB68002283F83E2073
:10268C00FB681B6C43F02002FB681A64FB68002299
:10269C0083F83C20012321E0BB681B0CDBB2012B2F
:1026AC000CD1FB681B685B69DA43BB6813409BB2B7
:1026BC00002B14BF01230023DBB20BE0FB681B686B
:1026CC009B69DA43BB6813409BB2002B14BF0123F8
:1026DC000023DBB2002B7FF46DAF002318461037BC
:1026EC00BD4680BD80B584B000AFF860B9607A603B
:1026FC0034E0F86800F0E3F80346002B01D0012326
:10270C0034E0BB68B3F1FF3F28D0FEF70BFD024667
:10271C007B68D31ABA689A4202D3BB68002B1DD1CE
:10272C00FB681B685B6903F08003802B16D0FB6889
:10273C0000221A63FB68202283F83D20FB680022EC
:10274C0083F83E20FB681B6C43F02002FB681A6484
:10275C00FB68002283F83C20012307E0FB681B6820
:10276C005B6903F08003802BC3D10023184610371C
:10277C00BD4680BD80B584B000AFF860B9607A60AA
:10278C0034E0F86800F09BF80346002B01D00123DD
:10279C0034E0BB68B3F1FF3F28D0FEF7C3FC024620
:1027AC007B68D31ABA689A4202D3BB68002B1DD13E
:1027BC00FB681B685B6903F00403042B16D0FB68F1
:1027CC0000221A63FB68202283F83D20FB6800225C
:1027DC0083F83E20FB681B6C43F02002FB681A64F4
:1027EC00FB68002283F83C20012307E0FB681B6890
:1027FC005B6903F00403042BC3D100231846103784
:10280C00BD4680BD80B584B000AFF860B9607A6019
:10281C0049E0FB681B685B6903F01003102B19D1AE
:10282C00FB681B686FF010025A61FB6800221A6388
:10283C00FB68202283F83D20FB68002283F83E20B1
:10284C00FB681A6CFB681A64FB68002283F83C2056
:10285C00012330E0FEF766FC02467B68D31ABA68A7
:10286C009A4202D3BB68002B1DD1FB681B685B69C5
:10287C0003F04003402B16D0FB6800221A63FB6860
:10288C00202283F83D20FB68002283F83E20FB6861
:10289C001B6C43F02002FB681A64FB68002283F86F
:1028AC003C20012307E0FB681B685B6903F04003D5
:1028BC00402BAED1002318461037BD4680BD80B4E6
:1028CC0083B000AF78607B681B685B6903F480633E
:1028DC00B3F5806F1BD17B681B686FF480625A6103
:1028EC007B6800221A637B68202283F83D207B687A
:1028FC00002283F83E207B681B6C43F004027B684B
:10290C001A647B68002283F83C20012300E000233A
:10291C0018460C37BD4680BC7047000080B586B0A9
:10292C0000AF78607B68002B01D1012372E27B68D9
:10293C001B6803F00103002B00F08780924B5B684F
:10294C0003F00C03042B0CD08F4B5B6803F00C03CF
:10295C00082B12D18C4B5B6803F48033B3F5803FAA
:10296C000BD1894B1B6803F40033002B6CD07B68B4
:10297C005B68002B68D101234CE27B685B68B3F584
:10298C00803F06D1804B1B687F4A43F48033136031
:10299C002EE07B685B68002B0CD17B4B1B687A4A62
:1029AC0023F480331360784B1B68774A23F480231D
:1029BC0013601DE07B685B68B3F5A02F0CD1724BE4
:1029CC001B68714A43F4802313606F4B1B686E4A7B
:1029DC0043F4803313600BE06B4B1B686A4A23F49F
:1029EC0080331360684B1B68674A23F480231360A1
:1029FC007B685B68002B13D0FEF794FB386108E012
:102A0C00FEF790FB02463B69D31A642B01D90323D2
:102A1C0000E25D4B1B6803F40033002BF0D014E094
:102A2C00FEF780FB386108E0FEF77CFB02463B6951
:102A3C00D31A642B01D90323ECE1534B1B6803F429
:102A4C000033002BF0D100E000BF7B681B6803F063
:102A5C000203002B63D04C4B5B6803F00C03002B80
:102A6C000BD0494B5B6803F00C03082B1CD1464B75
:102A7C005B6803F48033002B16D1434B1B6803F0C7
:102A8C000203002B05D07B681B69012B01D00123AD
:102A9C00C0E13D4B1B6823F0F8027B685B69DB00EF
:102AAC00394913430B603AE07B681B69002B20D03B
:102ABC00364B01221A60FEF735FB386108E0FEF751
:102ACC0031FB02463B69D31A022B01D90323A1E146
:102ADC002D4B1B6803F00203002BF0D02A4B1B6814
:102AEC0023F0F8027B685B69DB00274913430B601A
:102AFC0015E0264B00221A60FEF714FB386108E043
:102B0C00FEF710FB02463B69D31A022B01D90323B3
:102B1C0080E11D4B1B6803F00203002BF0D17B6896
:102B2C001B6803F00803002B3AD07B689B69002BD1
:102B3C0019D0174B01221A60FEF7F4FA386108E03D
:102B4C00FEF7F0FA02463B69D31A022B01D9032394
:102B5C0060E10D4B5B6A03F00203002BF0D0012007
:102B6C0000F0CEFA1CE00A4B00221A60FEF7DAFAEB
:102B7C0038610FE0FEF7D6FA02463B69D31A022BF6
:102B8C0008D9032346E100BF001002400000424276
:102B9C0080044242924B5B6A03F00203002BE9D1A2
:102BAC007B681B6803F00403002B00F0A680002355
:102BBC00FB758B4BDB6903F08053002B0DD1884BDD
:102BCC00DB69874A43F08053D361854BDB6903F0A3
:102BDC008053BB60BB680123FB75824B1B6803F4FD
:102BEC008073002B18D17F4B1B687E4A43F4807393
:102BFC001360FEF797FA386108E0FEF793FA024685
:102C0C003B69D31A642B01D9032303E1754B1B6871
:102C1C0003F48073002BF0D07B68DB68012B06D1AA
:102C2C006F4B1B6A6E4A43F0010313622DE07B6805
:102C3C00DB68002B0CD16A4B1B6A694A23F0010339
:102C4C001362674B1B6A664A23F0040313621CE091
:102C5C007B68DB68052B0CD1614B1B6A604A43F027
:102C6C00040313625E4B1B6A5D4A43F0010313625B
:102C7C000BE05B4B1B6A5A4A23F001031362584B5F
:102C8C001B6A574A23F0040313627B68DB68002B32
:102C9C0015D0FEF747FA38610AE0FEF743FA024610
:102CAC003B69D31A41F28832934201D90323B1E034
:102CBC004B4B1B6A03F00203002BEED014E0FEF723
:102CCC0031FA38610AE0FEF72DFA02463B69D31A55
:102CDC0041F28832934201D903239BE0404B1B6A9B
:102CEC0003F00203002BEED1FB7D012B05D13C4BF5
:102CFC00DB693B4A23F08053D3617B68DB69002B93
:102D0C0000F08780364B5B6803F00C03082B61D016
:102D1C007B68DB69022B46D1334B00221A60FEF72D
:102D2C0001FA386108E0FEF7FDF902463B69D31A57
:102D3C00022B01D903236DE0294B1B6803F00073B0
:102D4C00002BF0D17B681B6AB3F5803F08D1244B74
:102D5C005B6823F400327B689B68214913434B600A
:102D6C001F4B5B6823F474127B68196A7B685B6A7F
:102D7C000B431B4913434B601B4B01221A60FEF79C
:102D8C00D1F9386108E0FEF7CDF902463B69D31A58
:102D9C00022B01D903233DE0114B1B6803F0007398
:102DAC00002BF0D035E0104B00221A60FEF7BAF978
:102DBC00386108E0FEF7B6F902463B69D31A022BDC
:102DCC0001D9032326E0064B1B6803F00073002B8C
:102DDC00F0D11EE07B68DB69012B07D1012319E0E0
:102DEC000010024000700040600042420B4B5B68D8
:102DFC00FB60FB6803F480327B681B6A9A4206D145
:102E0C00FB6803F470127B685B6A9A4201D0012361
:102E1C0000E0002318461837BD4680BD0010024064
:102E2C0080B584B000AF786039607B68002B01D12D
:102E3C000123D0E06A4B1B6803F007033A689A42FF
:102E4C0010D9674B1B6823F0070265493B68134395
:102E5C000B60634B1B6803F007033A689A4201D07E
:102E6C000123B8E07B681B6803F00203002B20D021
:102E7C007B681B6803F00403002B05D0594B5B687F
:102E8C00584A43F4E06353607B681B6803F0080303
:102E9C00002B05D0534B5B68524A43F4605353608C
:102EAC00504B5B6823F0F0027B689B684D491343E1
:102EBC004B607B681B6803F00103002B40D07B68E0
:102ECC005B68012B07D1474B1B6803F40033002BC5
:102EDC0015D101237FE07B685B68022B07D1414B46
:102EEC001B6803F00073002B09D1012373E03D4BE9
:102EFC001B6803F00203002B01D101236BE0394B5B
:102F0C005B6823F003027B685B68364913434B60B4
:102F1C00FEF708F9F8600AE0FEF704F90246FB68D0
:102F2C00D31A41F28832934201D9032353E02D4B3B
:102F3C005B6803F00C027B685B689B009A42EBD1E8
:102F4C00274B1B6803F007033A689A4210D2244BB4
:102F5C001B6823F0070222493B6813430B60204B8C
:102F6C001B6803F007033A689A4201D0012332E050
:102F7C007B681B6803F00403002B08D0194B5B68BB
:102F8C0023F4E0627B68DB68164913434B607B6873
:102F9C001B6803F00803002B09D0124B5B6823F469
:102FAC0060527B681B69DB000E4913434B6000F0D9
:102FBC0021F802460B4B5B681B0903F00F030A490F
:102FCC00CB5C22FA03F3094A1360094B1B681846C1
:102FDC00FEF766F8002318461037BD4680BD00BFCB
:102FEC000020024000100240FC56000800000020A7
:102FFC000400002080B487B000AF0023FB600023E6
:10300C00BB6000237B6100237B6000233B611E4B74
:10301C005B68FB60FB6803F00C03042B02D0082BED
:10302C0003D027E0194B3B6127E0FB689B0C03F0B6
:10303C000F03174AD35C7B60FB6803F48033002BCF
:10304C0010D0114B5B685B0C03F00103114AD35C8D
:10305C00BB607B680D4A03FB02F2BB68B2FBF3F367
:10306C007B6104E07B680C4A02FB03F37B617B69A8
:10307C003B6102E0054B3B6100BF3B6918461C37C6
:10308C00BD4680BC704700BF0010024000127A00A1
:10309C00145700082457000800093D0080B400AF05
:1030AC00024B1B681846BD4680BC704700000020D0
:1030BC0080B500AFFFF7F2FF0246054B5B681B0AB9
:1030CC0003F007030349CB5C22FA03F3184680BDD7
:1030DC00001002400C57000880B500AFFFF7DEFF70
:1030EC000246054B5B68DB0A03F007030349CB5C24
:1030FC0022FA03F3184680BD001002400C5700085A
:10310C0080B485B000AF78600A4B1B680A4AA2FBFA
:10311C0003235B0A7A6802FB03F3FB6000BFFB68C6
:10312C005A1EFA60002BF9D100BF00BF1437BD4600
:10313C0080BC704700000020D34D621080B582B077
:10314C0000AF78607B68002B01D1012341E07B68E4
:10315C0093F83D30DBB2002B06D17B68002283F85C
:10316C003C207868FDF75CFE7B68022283F83D20EA
:10317C007B681A687B6804331946104600F0F6F930
:10318C007B68012283F846207B68012283F83E206D
:10319C007B68012283F83F207B68012283F8402062
:1031AC007B68012283F841207B68012283F842204E
:1031BC007B68012283F843207B68012283F844203A
:1031CC007B68012283F845207B68012283F83D202F
:1031DC00002318460837BD4680BD000080B485B07A
:1031EC0000AF78607B6893F83D30DBB2012B01D0E7
:1031FC00012332E07B68022283F83D207B681B6848
:10320C00184A93420ED07B681B68B3F1804F09D0EB
:10321C007B681B68144A934204D07B681B68134A72
:10322C00934211D17B681B689B6803F00703FB601A
:10323C00FB68062B10D07B681B681A687B681B68C0
:10324C0042F001021A6007E07B681B681A687B6811
:10325C001B6842F001021A60002318461437BD4661
:10326C0080BC7047002C0140000400400008004066
:10327C0080B485B000AF78607B6893F83D30DBB2EA
:10328C00012B01D001233AE07B68022283F83D2018
:10329C007B681B68DA687B681B6842F00102DA60A5
:1032AC007B681B68184A93420ED07B681B68B3F18D
:1032BC00804F09D07B681B68144A934204D07B680A
:1032CC001B68134A934211D17B681B689B6803F0FF
:1032DC000703FB60FB68062B10D07B681B681A6821
:1032EC007B681B6842F001021A6007E07B681B6870
:1032FC001A687B681B6842F001021A6000231846AA
:10330C001437BD4680BC7047002C014000040040BF
:10331C000008004080B582B000AF78607B681B6805
:10332C001B6903F00203022B22D17B681B68DB684C
:10333C0003F00203022B1BD17B681B686FF00202A7
:10334C001A617B6801221A777B681B689B6903F002
:10335C000303002B03D0786800F0EDF805E07868E3
:10336C0000F0E0F8786800F0EFF87B6800221A773C
:10337C007B681B681B6903F00403042B22D17B6858
:10338C001B68DB6803F00403042B1BD17B681B68F0
:10339C006FF004021A617B6802221A777B681B6843
:1033AC009B6903F44073002B03D0786800F0C3F8DA
:1033BC0005E0786800F0B6F8786800F0C5F87B682E
:1033CC0000221A777B681B681B6903F00803082B23
:1033DC0022D17B681B68DB6803F00803082B1BD128
:1033EC007B681B686FF008021A617B6804221A77ED
:1033FC007B681B68DB6903F00303002B03D0786840
:10340C0000F099F805E0786800F08CF8786800F026
:10341C009BF87B6800221A777B681B681B6903F09A
:10342C001003102B22D17B681B68DB6803F01003A0
:10343C00102B1BD17B681B686FF010021A617B6824
:10344C0008221A777B681B68DB6903F44073002B36
:10345C0003D0786800F06FF805E0786800F062F847
:10346C00786800F071F87B6800221A777B681B681B
:10347C001B6903F00103012B0ED17B681B68DB6811
:10348C0003F00103012B07D17B681B686FF001026D
:10349C001A617868FDF774F97B681B681B6903F087
:1034AC008003802B0ED17B681B68DB6803F08003E4
:1034BC00802B07D17B681B686FF080021A617868DB
:1034CC0000F0BFF87B681B681B6903F04003402BBE
:1034DC000ED17B681B68DB6803F04003402B07D1DF
:1034EC007B681B686FF040021A61786800F035F851
:1034FC007B681B681B6903F02003202B0ED17B68B3
:10350C001B68DB6803F02003202B07D17B681B684A
:10351C006FF020021A61786800F08AF800BF083753
:10352C00BD4680BD80B483B000AF786000BF0C375F
:10353C00BD4680BC704780B483B000AF786000BFDC
:10354C000C37BD4680BC704780B483B000AF786048
:10355C0000BF0C37BD4680BC704780B483B000AF51
:10356C00786000BF0C37BD4680BC704780B485B016
:10357C0000AF786039607B681B68FB607B68294A08
:10358C0093420BD07B68B3F1804F07D07B68264AFF
:10359C00934203D07B68254A934208D1FB6823F001
:1035AC007003FB603B685B68FA681343FB607B68E5
:1035BC001C4A93420BD07B68B3F1804F07D07B68D9
:1035CC00194A934203D07B68184A934208D1FB688E
:1035DC0023F44073FB603B68DB68FA681343FB60C1
:1035EC00FB6823F080023B685B691343FB607B68DC
:1035FC00FA681A603B689A687B68DA623B681A68FA
:10360C007B689A627B68074A934203D13B681A69CC
:10361C007B681A637B6801225A6100BF1437BD4670
:10362C0080BC7047002C01400004004000080040A2
:10363C0080B483B000AF786000BF0C37BD4680BC4F
:10364C00704780B483B000AF786000BF0C37BD46C4
:10365C0080BC704780B582B000AF78607B68002B6F
:10366C0001D1012342E07B6893F84130DBB2002B9F
:10367C0006D17B68002283F840207868FDF708FCAF
:10368C007B68242283F841207B681B68DA687B689E
:10369C001B6822F40052DA60786800F0C5FD7B6884
:1036AC001B681A697B681B6822F490421A617B685C
:1036BC001B685A697B681B6822F02A025A617B6876
:1036CC001B68DA687B681B6842F40052DA607B681E
:1036DC0000225A647B68202283F841207B682022D8
:1036EC0083F842207B6800225A630023184608376F
:1036FC00BD4680BD80B58AB002AFF860B9603B6052
:10370C001346FB8000237B61FB6893F84130DBB2EE
:10371C00202B6DD1BB68002B02D0FB88002B01D174
:10372C00012366E0FB6800225A64FB68212283F8BF
:10373C004120FDF7F7FC7861FB68FA889A84FB68F6
:10374C00FA88DA84FB689B68B3F5805F08D1FB6864
:10375C001B69002B04D10023FB61BB68BB6103E038
:10376C00BB68FB610023BB612AE03B6800937B696B
:10377C0000228021F86800F014FB0346002B01D0D6
:10378C00032336E0FB69002B0BD1BB691B881A465F
:10379C00FB681B68C2F308025A60BB690233BB6149
:1037AC0007E0FB691A78FB681B685A60FB690133F8
:1037BC00FB61FB68DB8C9BB2013B9AB2FB68DA8441
:1037CC00FB68DB8C9BB2002BCFD13B6800937B69F1
:1037DC0000224021F86800F0E4FA0346002B01D0E7
:1037EC00032306E0FB68202283F84120002300E03D
:1037FC00022318462037BD4680BD80B584B000AF8B
:10380C00F860B9601346FB80FB6893F84230DBB27A
:10381C00202B12D1BB68002B02D0FB88002B01D1CE
:10382C0001230BE0FB6800221A63FB881A46B96877
:10383C00F86800F024FB034600E00223184610371A
:10384C00BD4680BD80B5BAB000AF78607B681B68A0
:10385C001B68C7F8E4307B681B68DB68C7F8E0308E
:10386C007B681B685B69C7F8DC300023C7F8D8306D
:10387C000023C7F8D430D7F8E43003F00F03C7F8AF
:10388C00D830D7F8D830002B0FD1D7F8E43003F06C
:10389C002003002B09D0D7F8E03003F02003002BD5
:1038AC0003D0786800F001FC5BE2D7F8D830002B2D
:1038BC0000F0DE80D7F8DC3003F00103002B06D1DA
:1038CC00D7F8E03003F49073002B00F0D180D7F8D8
:1038DC00E43003F00103002B0BD0D7F8E03003F4F5
:1038EC008073002B05D07B685B6C43F001027B6816
:1038FC005A64D7F8E43003F00403002B0BD0D7F84C
:10390C00DC3003F00103002B05D07B685B6C43F0CB
:10391C0002027B685A64D7F8E43003F00203002BF0
:10392C000BD0D7F8DC3003F00103002B05D07B68FB
:10393C005B6C43F004027B685A64D7F8E43003F004
:10394C000803002B11D0D7F8E03003F02003002B34
:10395C0005D1D7F8DC3003F00103002B05D07B68D0
:10396C005B6C43F008027B685A647B685B6C002BD1
:10397C0000F0F281D7F8E43003F02003002B08D0DC
:10398C00D7F8E03003F02003002B02D0786800F069
:10399C008CFB7B681B685B6903F04003002B14BF36
:1039AC0001230023DBB2C7F8D4307B685B6C03F0D7
:1039BC000803002B03D1D7F8D430002B4FD07868F4
:1039CC0000F096FA7B681B685B6903F04003002BE0
:1039DC0041D07B681B681433C7F89C30D7F89C30F7
:1039EC0053E8003FC7F89830D7F8983023F04003DD
:1039FC00C7F8D0307B681B681433D7F8D020C7F8D1
:103A0C00A820C7F8A430D7F8A410D7F8A82041E80C
:103A1C000023C7F8A030D7F8A030002BD9D17B6891
:103A2C00DB6B002B13D07B68DB6B7E4A5A637B68A5
:103A3C00DB6B1846FDF7ECFC0346002B16D07B68BD
:103A4C00DB6B5B6B7A68D26B104698470EE078683C
:103A5C0000F093F90AE0786800F08FF906E07868D6
:103A6C0000F08BF97B6800225A6475E100BF73E1AA
:103A7C007B681B6B012B40F04F81D7F8E43003F0CF
:103A8C001003002B00F04881D7F8E03003F010034E
:103A9C00002B00F041810023BB607B681B681B6816
:103AAC00BB607B681B685B68BB60BB687B681B6822
:103ABC005B6903F04003002B00F0B6807B68DB6B86
:103ACC001B685B68A7F8BE30B7F8BE30002B00F05F
:103ADC0045817B689B8DB7F8BE209A4280F03E8171
:103AEC007B68B7F8BE20DA857B68DB6B9B69202B83
:103AFC0000F088807B681B680C33C7F88830D7F8D7
:103B0C00883053E8003FC7F88430D7F8843023F46A
:103B1C008073C7F8B8307B681B680C33D7F8B820B3
:103B2C00C7F89420C7F89030D7F89010D7F89420A5
:103B3C0041E80023C7F88C30D7F88C30002BD9D152
:103B4C007B681B6814337B677B6F53E8003F3B67D4
:103B5C003B6F23F00103C7F8B4307B681B68143348
:103B6C00D7F8B420C7F88020FB67F96FD7F880200E
:103B7C0041E80023BB67BB6F002BE1D17B681B685E
:103B8C0014333B663B6E53E8003FFB65FB6D23F043
:103B9C004003C7F8B0307B681B681433D7F8B020EB
:103BAC00FA66BB66B96EFA6E41E800237B667B6EE3
:103BBC00002BE3D17B68202283F842207B68002213
:103BCC001A637B681B680C33FB64FB6C53E8003F87
:103BDC00BB64BB6C23F01003C7F8AC307B681B686C
:103BEC000C33D7F8AC20BA657B65796DBA6D41E8BA
:103BFC0000233B653B6D002BE3D17B68DB6B1846E8
:103C0C00FDF7CBFB7B6802225A637B689A8D7B683D
:103C1C00DB8D9BB2D31A9BB21946786800F0B6F8CC
:103C2C009CE000BFC13F00087B689A8D7B68DB8DF0
:103C3C009BB2D31AA7F8CE307B68DB8D9BB2002BDE
:103C4C0000F08E80B7F8CE30002B00F089807B68B6
:103C5C001B680C33BB63BB6B53E8003F7B637B6B14
:103C6C0023F49073C7F8C8307B681B680C33D7F803
:103C7C00C8207A643B64396C7A6C41E80023FB639E
:103C8C00FB6B002BE3D17B681B6814337B627B6A74
:103C9C0053E8003F3B623B6A23F00103C7F8C43092
:103CAC007B681B681433D7F8C4203A63FB62F96A4B
:103CBC003A6B41E80023BB62BB6A002BE3D17B6803
:103CCC00202283F842207B6800221A637B681B68E1
:103CDC000C333B613B6953E8003FFB60FB6823F00E
:103CEC001003C7F8C0307B681B680C33D7F8C020B2
:103CFC00FA61BB61B969FA6941E800237B617B69B0
:103D0C00002BE3D17B6802225A63B7F8CE301946F8
:103D1C00786800F03BF823E0D7F8E43003F0800338
:103D2C00002B09D0D7F8E03003F08003002B03D030
:103D3C00786800F053F914E0D7F8E43003F040034E
:103D4C00002B0ED0D7F8E03003F04003002B08D046
:103D5C00786800F092F904E000BF02E000BF00E0D8
:103D6C0000BFE837BD4680BD80B483B000AF78603B
:103D7C0000BF0C37BD4680BC704780B483B000AF29
:103D8C00786000BF0C37BD4680BC704780B483B0F0
:103D9C0000AF78600B467B8000BF0C37BD4680BC03
:103DAC00704780B590B000AFF860B9603B601346C7
:103DBC00FB7150E0BB6CB3F1FF3F4CD0BB6C002BE4
:103DCC0007D0FDF7AFF902463B68D31ABA6C9A429A
:103DDC0041D2FB681B680C33BB62BB6A53E8003FE3
:103DEC007B627B6A23F4D073FB63FB681B680C3328
:103DFC00FA6B7A633B63396B7A6B41E80023FB62A5
:103E0C00FB6A002BE5D1FB681B6814337B617B6973
:103E1C0053E8003F3B613B6923F00103BB63FB6844
:103E2C001B681433BA6B3A62FB61F9693A6A41E870
:103E3C000023BB61BB69002BE5D1FB68202283F812
:103E4C004120FB68202283F84220FB68002283F883
:103E5C00402003230FE0FB681B681A68BB68134003
:103E6C00BA689A420CBF01230023DBB21A46FB79D5
:103E7C009A429FD0002318464037BD4680BD80B47F
:103E8C0085B000AFF860B9601346FB80FB68BA6878
:103E9C009A62FB68FA889A85FB68FA88DA85FB686F
:103EAC0000225A64FB68222283F84220FB681B69BB
:103EBC00002B07D0FB681B68DA68FB681B6842F4B0
:103ECC008072DA60FB681B685A69FB681B6842F0F9
:103EDC0001025A61FB681B68DA68FB681B6842F0D8
:103EEC002002DA60002318461437BD4680BC7047A8
:103EFC0080B495B000AF78607B681B680C337B6333
:103F0C007B6B53E8003F3B633B6B23F49073FB6488
:103F1C007B681B680C33FA6C3A64FB63F96B3A6C84
:103F2C0041E80023BB63BB6B002BE5D17B681B68AE
:103F3C0014333B623B6A53E8003FFB61FB6923F09F
:103F4C000103BB647B681B681433BA6CFA62BB62F6
:103F5C00B96AFA6A41E800237B627B6A002BE5D1DF
:103F6C007B681B6B012B19D17B681B680C33FB60C6
:103F7C00FB6853E8003FBB60BB6823F010037B6415
:103F8C007B681B680C337A6CBA617B617969BA699E
:103F9C0041E800233B613B69002BE5D17B68202283
:103FAC0083F842207B6800221A6300BF5437BD4659
:103FBC0080BC704780B584B000AF78607B685B6A6A
:103FCC00FB60FB680022DA85FB680022DA84F86863
:103FDC00FFF7D3FE00BF1037BD4680BD80B485B05F
:103FEC0000AF78607B6893F84130DBB2212B3ED177
:103FFC007B689B68B3F5805F14D17B681B69002BD1
:10400C0010D17B681B6AFB60FB681B881A467B68B7
:10401C001B68C2F308025A607B681B6A9A1C7B6897
:10402C001A6208E07B681B6A591C7A6811621A785C
:10403C007B681B685A607B68DB8C9BB2013B9BB234
:10404C007A681946D184002B0FD17B681B68DA681B
:10405C007B681B6822F08002DA607B681B68DA6878
:10406C007B681B6842F04002DA60002300E0022308
:10407C0018461437BD4680BC704780B582B000AF7F
:10408C0078607B681B68DA687B681B6822F04002EA
:10409C00DA607B68202283F841207868FFF764FEA1
:1040AC00002318460837BD4680BD80B58CB000AFE4
:1040BC0078607B6893F84230DBB2222B40F0AE8004
:1040CC007B689B68B3F5805F17D17B681B69002BFD
:1040DC0013D10023FB627B689B6ABB627B681B6805
:1040EC005B689BB2C3F308039AB2BB6A1A807B6805
:1040FC009B6A9A1C7B689A6226E07B689B6AFB62CF
:10410C000023BB627B689B68B3F5805F07D07B683C
:10411C009B68002B0AD17B681B69002B06D17B683E
:10412C001B685B68DAB2FB6A1A7008E07B681B6874
:10413C005B68DBB203F07F03DAB2FB6A1A707B6850
:10414C009B6A5A1C7B689A627B68DB8D9BB2013B35
:10415C009BB27A681946D185002B5DD17B681B68B0
:10416C00DA687B681B6822F02002DA607B681B68C7
:10417C00DA687B681B6822F48072DA607B681B68E3
:10418C005A697B681B6822F001025A617B68202205
:10419C0083F842207B6800225A637B681B6B012BDF
:1041AC0035D17B6800221A637B681B680C337B61FA
:1041BC007B6953E8003F3B613B6923F010037B6252
:1041CC007B681B680C337A6A3A62FB61F9693A6A5C
:1041DC0041E80023BB61BB69002BE5D17B681B6800
:1041EC001B6803F01003102B0AD10023FB607B68C3
:1041FC001B681B68FB607B681B685B68FB60FB686B
:10420C007B689B8D19467868FFF7C0FD02E07868E3
:10421C00FCF766FB002302E0002300E002231846B3
:10422C003037BD4680BD000080B584B000AF7860EB
:10423C007B681B681B6923F440517B68DA687B68D8
:10424C001B680A431A617B689A687B681B691A436E
:10425C007B685B691343BB607B681B68DB6823F47A
:10426C00B05323F00C037A681268B9680B43D3601F
:10427C007B681B685B6923F440717B689A697B6877
:10428C001B680A435A617B681B682C4A934203D112
:10429C00FEF722FFF86002E0FEF70AFFF860FA680A
:1042AC0013469B0013449A001A447B685B689B007E
:1042BC00B2FBF3F3224AA2FB03235B091901FA6850
:1042CC0013469B0013449A001A447B685B689B005E
:1042DC00B2FBF3F21A4BA3FB02035B09642000FB55
:1042EC0003F3D31A1B013233154AA2FB03235B09D8
:1042FC0003F0F0031944FA6813469B0013449A0028
:10430C001A447B685B689B00B2FBF3F20C4BA3FB7B
:10431C0002035B09642000FB03F3D31A1B01323345
:10432C00074AA2FB03235B0903F00F027B681B689F
:10433C000A449A6000BF1037BD4680BD003801406A
:10434C001F85EB510EB46FF0004100B59CB01DAB56
:10435C0002900690079104910848094953F8042BE0
:10436C000591006802A9019300F0BAF90022029BA2
:10437C001A701CB05DF804EB03B0704758000020B5
:10438C000802FFFF0EB44FF4017230B59CB01FACA5
:10439C0054F8045BADF8142002900690FBF7D0FEA5
:1043AC000B4B03900B9300230F9314934FF6FF7357
:1043BC0007900848ADF816302A46234602A9006833
:1043CC00019400F0E5FA1CB0BDE8304003B0704732
:1043DC00E5430008580000200020704703460244C3
:1043EC00934200D1704703F8011BF9E7014B1868A1
:1043FC00704700BF5800002070B500260C4D0D4CC6
:10440C00641BA410A64209D101F0FEF800260A4D47
:10441C000A4C641BA410A64205D170BD55F8043B90
:10442C0098470136EEE755F8043B98470136F2E71A
:10443C007858000878580008785800087C5800080C
:10444C007047704738B50546002940D051F8043CF8
:10445C000C1F002BB8BFE41800F0DCF81C4A1368E2
:10446C0033B9636014602846BDE8384000F0D8B812
:10447C00A34208D9206821188B4201BF19685B68D8
:10448C0009182160EDE71A465B680BB1A342FAD913
:10449C0011685018A0420BD1206801445018834277
:1044AC001160E0D118685B68084410605360DAE76B
:1044BC0002D90C232B60D6E7206821188B4201BF50
:1044CC0019685B680918216063605460CBE738BDDC
:1044DC003003002070B50E4E0C463168054611B9FC
:1044EC0000F03AFF30602146284600F035FF431CAF
:1044FC000AD0C41C24F00304A04207D0211A284679
:10450C0000F02AFF013001D14FF0FF34204670BD7E
:10451C00340300202DE9F843CD1C25F003050835A4
:10452C000C2D38BF0C25002D074601DBA94205D9FF
:10453C000C2300263B603046BDE8F883DFF8D080C2
:10454C0000F068F8D8F800301C465CBB29463846A9
:10455C00FFF7C0FF431C044655D1D8F8004026464F
:10456C00002E45D1002C48D023683146384604EB48
:10457C00030900F0F1FE81453FD1216838466D1AE0
:10458C002946FFF7A7FF013037D023682B4423605F
:10459C00D8F80030002B38D05A68A2422BD1002218
:1045AC005A600FE02268521B1FD40B2A17D96119CD
:1045BC00A342256018BF5960636808BFC8F8001093
:1045CC0062514B60384604F10B0600F029F826F0D6
:1045DC000706231DF21AAED09B1BA350ABE7A342D8
:1045EC006268DDD1C8F80020ECE723466468ACE7CC
:1045FC0034467668B4E71346CCE70C2338463B6068
:10460C0000F00EF897E72560DCE75B60FFDE00BF8B
:10461C00300300200148FFF713BF00BF2C0300201C
:10462C000148FFF70EBF00BF2C0300202DE9F04717
:10463C001F468E688246BE420C4690460B682CD8AC
:10464C008A8912F4906F26D06569096905EB4505D6
:10465C00A3EB010905EBD5757B1C4B446D109D42FA
:10466C0038BF1D46530527D52946FFF753FF06468D
:10467C0060B34A46216900F08DFEA38923F4906350
:10468C0043F08003A38126614E4426603E4665615B
:10469C00A5EB0905A560BE4200D93E46324641460F
:1046AC00206800F03EFE0020A3689B1BA3602368DB
:1046BC0033442360BDE8F0872A4600F079FE0646B5
:1046CC000028E0D150462169FFF7BCFE0C23CAF844
:1046DC000030A3894FF0FF3043F04003A381E9E79A
:1046EC002DE9F04F98468B8907461B060D4614465C
:1046FC009DB00ED50B6963B94021FFF70BFF286005
:10470C00286120B90C233B604FF0FF30D0E04023F0
:10471C006B610023099320238DF8293030234FF04F
:10472C000109CDF80C80DFF8A0818DF82A302346E2
:10473C009A4613F8012B0AB1252AF9D1BAEB040BCE
:10474C000BD05B46224629463846FFF76FFF0130F7
:10475C0000F0A980099A5A4409929AF80030002B6B
:10476C0000F0A18000234FF0FF32CDE905230AF1C0
:10477C00010A049307938DF853301A93544605227B
:10478C0014F8011B504800F0F7FD049AD8B9D00674
:10479C0044BF20238DF85330110744BF2B238DF8D1
:1047AC0053309AF800302A2B15D0544600204FF085
:1047BC000A0C079A214611F8013B303B092B4DD9C5
:1047CC00B0B1079214E0A0EB080309FA03F313430A
:1047DC00A2460493D2E7039B191D1B680391002B7F
:1047EC00BBBF5B4242F0020207930793B8BF04922F
:1047FC0023782E2B0CD163782A2B34D1039B0234D3
:10480C001A1D1B680392002BB8BF4FF0FF330593A2
:10481C00DFF8B8A003225046217800F0ADFD38B186
:10482C004022049BA0EB0A00824013430134049302
:10483C0014F8011B062226488DF8281000F09CFD68
:10484C00002838D0234B1BBB039B073323F00703F3
:10485C0008330393099B3344099368E70C46012002
:10486C000CFB0232A6E700234FF00A0C1946013468
:10487C000593204610F8012B303A092A03D9002B56
:10488C00C6D00591C4E7044601230CFB0121F0E7D7
:10489C0003AB00932A4638460F4B04A9AFF30080B4
:1048AC00421C0646D6D1AB895B063FF52DAF099865
:1048BC001DB0BDE8F08F03AB00932A463846064B7B
:1048CC0004A900F04FFAEBE7265700082C57000814
:1048DC0030570008000000003946000838B54B1C62
:1048EC00144603D14FF0FF35284638BD9389CDB21D
:1048FC0023F020039381636B52688BB1A36B9342BB
:10490C0008DD23685A1E226003F8015C63680133DA
:10491C006360E9E7214600F0CCFC0028F1D0E1E728
:10492C002169236851B1994208D213F8011CA9429C
:10493C0004D1013B013223606260D5E7C4E90F3238
:10494C0004F1440363630323A363234603F8465F24
:10495C0023600123DCE710B50C46496B69B104F107
:10496C004403994201D0FFF76DFD0020236C606376
:10497C00636013B1E36B236010BD23694FF0FF300C
:10498C00236000236360A38943F02003A381F3E732
:10499C002DE9F0470C4600210646ADF5227DCDE908
:1049AC004411A6490DF10408A091A549A54FDFF8C3
:1049BC009892CDF81881A19100931378002B00F0F8
:1049CC005A81F95C551C11F0080119D06368002B51
:1049DC000FDD23681A78BA5C120701D42A46ECE77B
:1049EC00459A01330132459262682360013A626054
:1049FC00ECE721463046A19B98470028E9D0EDE72B
:104A0C00252B12D09A466368002B40F392802268C3
:104A1C001378534540F02F8163680132013B63608A
:104A2C00459B226001334593D8E7419143915378DC
:104A3C002A2B04BF1023951C4FF00A0208BF419388
:104A4C00AA461AF8011BA1F13003092B1CD9032229
:104A5C007D4800F091FC38B101235546419AA0EBFA
:104A6C00090083401343419315F8013B782B06D87A
:104A7C00572B10D8252BC5D056D8002B64D0032328
:104A8C0047930A23429375E0439B554602FB03115F
:104A9C0030394391D4E7A3F15802202AEFD801A171
:104AAC0051F822F0634B00088B4A00088B4A00082F
:104ABC00C14B00088B4A00088B4A00088B4A00083F
:104ACC008B4A00088B4A00088B4A00088B4A000866
:104ADC00D74B0008BD4B00083B4B00083B4B000874
:104AEC003B4B00088B4A0008794B00088B4A0008A6
:104AFC008B4A00088B4A00088B4A0008E74B0008D9
:104B0C00B54B00085B4B00088B4A00088B4A000829
:104B1C00E34B00088B4A0008BD4B00088B4A000889
:104B2C008B4A0008634B0008453B022BA7D8052392
:104B3C001FE021463046A19B984700283FF467AF01
:104B4C004498002840F08D804FF0FF308FE0419A60
:104B5C0042F020024192419A42F40072419210229A
:104B6C006F2B34BF03230423429202E000234293B1
:104B7C00032347936368002B3DDD419B590604D406
:104B8C0023681A78BA5C12073CD4479B022B4BDC87
:104B9C006B462246304641A900F006FA01286AD03D
:104BAC0002287FF41BAFCBE7082342930423E0E7F2
:104BBC000A22D5E72946404600F042FB419B0546B8
:104BCC0043F0400341930123D3E7419B43F040035F
:104BDC0041930023CDE70223CBE74198C3063FF571
:104BEC00FDAE009B459A191D00911B68C0074CBF78
:104BFC001A801A60F2E621463046A19B984700289D
:104C0C00BBD09DE7459A013245926268013A002A71
:104C1C00626002DD01332360B2E721463046A19B7E
:104C2C0098470028ACD08BE7042B0FDC6B46224650
:104C3C00304641A900F012FAB0E700BFE94800087D
:104C4C0063490008755700082C5700080B4B002BC4
:104C5C003FF4C4AE6B462246304641A9AFF3008008
:104C6C009CE7A38913F0400F18BF4FF0FF300DF5F0
:104C7C00227DBDE8F0874498F9E700BF00000000F2
:104C8C002DE9F047164699468A680B690746934208
:104C9C00B8BF1346336091F843200C46DDF82080F2
:104CAC000AB1013333602368990642BF336802337B
:104CBC003360256815F0060506D104F1190AE3687E
:104CCC0032689B1AAB422BDC94F84320131E2268EB
:104CDC0018BF0123920630D44946384604F14302EA
:104CEC00C047013023D02368226903F00603042B4C
:104CFC0014BF002533684FF0000608BFE56804F1C7
:104D0C001A0408BFED1A54F8123C08BF25EAE575E1
:104D1C009342C4BF9B1AED18B5421AD1002008E08B
:104D2C000123524649463846C047013003D14FF063
:104D3C00FF30BDE8F0870135C1E73020E11881F87C
:104D4C0043005A1C94F845102244023382F8431055
:104D5C00C2E70123224649463846C0470130E6D017
:104D6C000136D9E72DE9FF470F7E9146782F804613
:104D7C000C469A460C9D01F1430207D8622F0AD8C3
:104D8C00002F00F0D580582F00F0C18004F14205AF
:104D9C0084F842703AE0A7F16303152BF6D801A111
:104DAC0051F823F0094E00081D4E0008994D0008DB
:104DBC00994D0008994D0008994D00081D4E0008AA
:104DCC00994D0008994D0008994D0008994D00081F
:104DDC00234F0008494E0008DD4E0008994D00088D
:104DEC00994D0008454F0008994D0008494E0008A0
:104DFC00994D0008994D0008E54E00082B681A1DC6
:104E0C001B682A6004F1420584F842300123A0E0BB
:104E1C0020682B68070603F10401296001D51E6880
:104E2C0003E04606FBD5B3F90060002E03DA2D2310
:104E3C00764284F843300A23594812E02B682068E4
:104E4C00191D2960050601D51E6802E04106FBD537
:104E5C001E886F2F0CBF08230A235148002184F8A9
:104E6C0043106568002DA8BF2168A560A4BF21F080
:104E7C00040121600EB9002D4BD01546B6FBF3F1A1
:104E8C0003FB1167C75D05F8017D3746BB420E4633
:104E9C00F4D9082B0BD12368DE0708D52369616888
:104EAC009942DEBF302305F8013C05F1FF35521B5A
:104EBC0022614B4621464046CDF800A003AAFFF7DD
:104ECC00DFFE01304AD14FF0FF3004B0BDE8F0876F
:104EDC00236843F0200323607827324884F8457018
:104EEC00236829681F0651F8046B02D45F0648BF7B
:104EFC00B6B2DF0748BF43F02003296048BF2360E8
:104F0C001EB9236823F0200323601023A6E724484E
:104F1C00E4E71546BDE72B682668181D6169286013
:104F2C0035061B6801D5196002E07006FBD51980A7
:104F3C00002315462361BCE72B6800211A1D2A604B
:104F4C001D686268284600F017FA08B1401B6060C3
:104F5C0063682361002384F84330AAE72A46494654
:104F6C0040462369D0470130ADD023689B0713D44A
:104F7C00E068039B9842B8BF1846A6E70123324667
:104F8C0049464046D04701309DD00135E36803992E
:104F9C005B1AAB42F2DCEBE7002504F11906F5E7EE
:104FAC0037570008485700082DE9F84315468A681A
:104FBC0080460C4632B98A69002A0CBF01224FF098
:104FCC00FF328A6000272268DFF88C90D1065FBF21
:104FDC001A68111D19601668A06988B1012807D1DB
:104FEC002B681A7863699B5C53B9002F31D022E08F
:104FFC00022820D12B681B7819F803301B071AD410
:10500C0023680137DA065EBF2B681B7806F8013B74
:10501C002A686B6801322A60A268013B013A6B6016
:10502C00A26042B1002BD7DC29464046D4F880312F
:10503C0098470028D0D0236813F0100305D1E268FC
:10504C000132E260A26902B13370002023693B4453
:10505C002361BDE8F88300BF755700082DE9F04FB8
:10506C000C469846724B87B08246164693E807006A
:10507C0003AB83E807006F4BA1696F4A27460329EE
:10508C0018BF1A46A36801925A1EB2F5AE7F81BFB3
:10509C006FF4AE7503EB050940F25D13A36057F88E
:1050AC001C3B98BF4FF000093D464FF0000B43F4FA
:1050BC0050632360316803AB0222097853F82B004C
:1050CC0000F05AF928B3BBF1010F59D162682AB923
:1050DC0008232268636042F400722260226822F482
:1050EC00A0622260A268511EA16092B13268511C6C
:1050FC003160127805F8012B7268013A002A72604F
:10510C0007DC31465046D4F880219047002840F007
:10511C0085800BF1010BBBF1030FCBD163680BB98D
:10512C000A236360636845496069C91A00F088F80E
:10513C004FF0000BA3682268002B3DD031686069EA
:10514C0091F800C010F80C00002835D0BCF1300FDD
:10515C0024D1100522D50BF1010BB9F1000F03D0AE
:10516C00013309F1FF39A3607368013B002B7360B5
:10517C001BDD336801333360A368013BA360D9E7BF
:10518C00BBF1020FAED1226802F4C061B1F5007F11
:10519C00BFD1102342F480726360A2E722F4106244
:1051AC0022600B7805F8013BDEE731465046D4F817
:1051BC00803198470028DFD02368D9050DD5BD4232
:1051CC0009D915F8011C32465046D4F87C3105F14A
:1051DC00FF3998474D46BD4228D0226812F0100284
:1051EC0013D12A70394663685046019EB047D8F8EF
:1051FC00003021681A1DC8F8002011F0200F1B6820
:10520C000FD01860E3680133E36000202369ED1BC5
:10521C005D442B44236107B0BDE8F08F4FF0000BC9
:10522C00CAE7CA074CBF18801860EBE70120F2E709
:10523C00F056000801560008195500086957000877
:10524C0070B50B7804465E2B0BBF4B784A1C8A1C3E
:10525C00002108BF0121013804F1FF0500F8011FEE
:10526C00A842FBD10BB9501E70BD81F00101104654
:10527C00E154024612F8015B2D2D05D05D2D16D0A0
:10528C00002DF1D02B46F2E746785D2EFAD0B342D2
:10529C00F8DC1A46023001329642A154FBDCF21AB9
:1052AC00013AB342A8BF00225D1CAB18E1E71046DF
:1052BC00DAE72DE9F0410C46496B04F144039942BD
:1052CC001BD14FF48061FFF725F918B94FF0FF306F
:1052DC00BDE8F0814FF48063A36394F846306063BB
:1052EC0080F8FF3394F8453000F2FD30437094F8A9
:1052FC004430037020600020EAE7A66B77003A4642
:10530C0000F056F805460028E0D000EB06080146F0
:10531C003246404600F03EF8C4E90D57C4F8008010
:10532C00E9E7884210B501EB020402D98442234616
:10533C0007D8431EA14208D011F8012B03F8012F06
:10534C00F8E7014602448A4200D110BD13F8014D22
:10535C0002F8014DF7E7000038B50023054D04466F
:10536C0008462B60FBF724FE431C02D12B6803B1CB
:10537C00236038BD28030020034610B5C9B202448F
:10538C009342184601D1002003E0047801338C428B
:10539C00F6D110BD0A44914200F1FF3300D17047A1
:1053AC0010B511F8014B914203F8014FF9D110BD22
:1053BC002DE9F041804614460E4621B91146BDE850
:1053CC00F041FFF7A7B82AB9FFF73CF82546284665
:1053DC00BDE8F08100F010F98442074602D8B4EB26
:1053EC00500F12D821464046FFF794F80546002886
:1053FC00EDD0BC422246314628BF3A46FFF7CAFFE1
:10540C0031464046FFF71EF8E1E73546DFE700007E
:10541C00012B2DE9F0478646904601D0242B06D966
:10542C00FEF7E4FF162303600020BDE8F0870D466D
:10543C0035482A4615F8014B065D16F00806F8D1DA
:10544C002D2C2ED101262C78951C002B57D0102BEF
:10545C0009D1302C07D12A7802F0DF02582A49D121
:10546C0010236C780235002206F1004C0CF1FF3C45
:10547C00BCFBF3F9104603FB19CAA4F13007092F42
:10548C0014D83C46A34220DD571C07D0814519D3C4
:10549C0001D1A24516DB012200FB034015F8014B9C
:1054AC00EBE72B2C04BF2C78951CCEE7A4F141071D
:1054BC00192F01D8373CE5E7A4F16107192F04D85F
:1054CC00573CDFE74FF0FF32E8E7531C08D12223AB
:1054DC006046CEF80030B8F1000FA6D0691E06E089
:1054EC0006B14042B8F1000F9FD0002AF6D1C8F89F
:1054FC0000109AE73024002BB5D10823B3E7302CE9
:10550C00A9D00A23AFE700BF75570008FFF780BF8B
:10551C002DE9F04386460D46354F284615F8014BCC
:10552C003E5D16F00806F8D12D2C30D101262C78D2
:10553C00851C002B57D0102B09D1302C07D1287883
:10554C0000F0DF00582849D110236C7802354FF059
:10555C00FF38B8FBF3F8002703FB08F938466FEA6D
:10556C000909A4F1300CBCF1090F15D86446A3420B
:10557C0023DDB7F1FF3F07D080451BD301D1A145F7
:10558C0018DB012700FB034015F8014BE9E72B2C36
:10559C0004BF2C78851CCCE7A4F1410CBCF1190F8D
:1055AC0001D8373CE3E7A4F1610CBCF1190F04D826
:1055BC00573CDCE74FF0FF37E6E77B1C06D1222394
:1055CC003846CEF8003032B9BDE8F08306B140421F
:1055DC00002AF9D007B1691E1160F5E73024002BC1
:1055EC00B5D10823B3E7302CA9D00A23AFE700BF0D
:1055FC0075570008FFF78CBF51F8043C181F002B9F
:10560C00BCBF0B58C0187047F8B500BFF8BC08BC3D
:10561C009E467047F8B500BFF8BC08BC9E46704764
:10562C0044253031642F253032642F253032642FDD
:10563C00323025303264450054253032643A2530FE
:10564C0032643A253032644D000000005425642643
:10565C00256448004572726F723A20526573706F00
:10566C006E64204C6576656C20302054696D656FD6
:10567C00757421004572726F723A20526573706FA7
:10568C006E64204C6576656C20312054696D656FB5
:10569C00757421004572726F723A204461746120F6
:1056AC004C6576656C20302054696D656F7574217E
:1056BC00000000004572726F723A2043524320453D
:1056CC0072726F72210000005425643A25643A25E9
:1056DC00644D00004425642F25642F25642F256418
:1056EC004D0000006B5700086E57000871570008FA
:1056FC000000000000000000010203040607080976
:10570C000000000001020304020304050607080957
:10571C000A0B0C0D0E0F10100102232D302B200044
:10572C00686C4C006566674546470030313233344F
:10573C0035363738394142434445460030313233EF
:10574C0034353637383961626364656600412D46FD
:10575C00612D66383930313233343536375D002BB4
:10576C002D003030007858000020202020202020F0
:10577C0020202828282828202020202020202020F5
:10578C002020202020202020208810101010101005
:10579C001010101010101010100404040404040451
:1057AC0004040410101010101010414141414141EB
:1057BC0001010101010101010101010101010101CD
:1057CC0001010101101010101010424242424242DD
:1057DC00020202020202020202020202020202029D
:1057EC000202020210101010200000000000000045
:1057FC00000000000000000000000000000000009D
:10580C00000000000000000000000000000000008C
:10581C00000000000000000000000000000000007C
:10582C00000000000000000000000000000000006C
:10583C00000000000000000000000000000000005C
:10584C00000000000000000000000000000000004C
:10585C00000000000000000000000000000000003C
:0C586C0000000000000000000000000030
:0458780031010008F2
:04587C000D01000812
:105880000024F400100000000100000000000000EF
:10589000F001002058020020C0020020000000009B
:1058A00000000000000000000000000000000000F8
:1058B00000000000000000000000000000000000E8
:1058C00000000000000000000000000000000000D8
:0C58D00000000000000000000C000020A0
:0400000508001035AA
:00000001FF
